{
  "_format": "hh-sol-artifact-1",
  "contractName": "vehicleRegister",
  "sourceName": "contracts/vehicleRegister.sol",
  "abi": [
    {
      "anonymous": false,
      "inputs": [
        {
          "indexed": false,
          "internalType": "string",
          "name": "date",
          "type": "string"
        },
        {
          "indexed": false,
          "internalType": "uint256",
          "name": "time",
          "type": "uint256"
        },
        {
          "indexed": false,
          "internalType": "string",
          "name": "direction",
          "type": "string"
        },
        {
          "indexed": false,
          "internalType": "bytes32",
          "name": "ID",
          "type": "bytes32"
        },
        {
          "indexed": false,
          "internalType": "string",
          "name": "description",
          "type": "string"
        },
        {
          "indexed": false,
          "internalType": "address",
          "name": "owner",
          "type": "address"
        }
      ],
      "name": "newMaintenance",
      "type": "event"
    },
    {
      "anonymous": false,
      "inputs": [
        {
          "indexed": false,
          "internalType": "address",
          "name": "newOwner",
          "type": "address"
        }
      ],
      "name": "newOwner",
      "type": "event"
    },
    {
      "anonymous": false,
      "inputs": [
        {
          "indexed": false,
          "internalType": "string",
          "name": "name",
          "type": "string"
        },
        {
          "indexed": false,
          "internalType": "address",
          "name": "Address",
          "type": "address"
        },
        {
          "indexed": false,
          "internalType": "string",
          "name": "country",
          "type": "string"
        },
        {
          "indexed": false,
          "internalType": "string",
          "name": "city",
          "type": "string"
        },
        {
          "indexed": false,
          "internalType": "address[]",
          "name": "star",
          "type": "address[]"
        },
        {
          "indexed": false,
          "internalType": "address[]",
          "name": "negative",
          "type": "address[]"
        }
      ],
      "name": "newUSer",
      "type": "event"
    },
    {
      "anonymous": false,
      "inputs": [
        {
          "indexed": false,
          "internalType": "string",
          "name": "patent",
          "type": "string"
        },
        {
          "indexed": false,
          "internalType": "address",
          "name": "owner",
          "type": "address"
        },
        {
          "indexed": false,
          "internalType": "string",
          "name": "brand",
          "type": "string"
        },
        {
          "indexed": false,
          "internalType": "string",
          "name": "date",
          "type": "string"
        },
        {
          "indexed": false,
          "internalType": "uint256",
          "name": "time",
          "type": "uint256"
        },
        {
          "indexed": false,
          "internalType": "uint256",
          "name": "year",
          "type": "uint256"
        },
        {
          "indexed": false,
          "internalType": "address[]",
          "name": "ownerHistory",
          "type": "address[]"
        },
        {
          "indexed": false,
          "internalType": "bytes32[]",
          "name": "maintenanceHistory",
          "type": "bytes32[]"
        }
      ],
      "name": "newVehicle",
      "type": "event"
    },
    {
      "inputs": [
        {
          "internalType": "string",
          "name": "_patent",
          "type": "string"
        },
        {
          "internalType": "string",
          "name": "_brand",
          "type": "string"
        },
        {
          "internalType": "string",
          "name": "_date",
          "type": "string"
        },
        {
          "internalType": "uint256",
          "name": "_year",
          "type": "uint256"
        }
      ],
      "name": "RegisterNewVehicle",
      "outputs": [],
      "stateMutability": "nonpayable",
      "type": "function"
    },
    {
      "inputs": [
        {
          "internalType": "address",
          "name": "_address",
          "type": "address"
        }
      ],
      "name": "happyPartners",
      "outputs": [],
      "stateMutability": "nonpayable",
      "type": "function"
    },
    {
      "inputs": [
        {
          "internalType": "address",
          "name": "_newOwner",
          "type": "address"
        },
        {
          "internalType": "string",
          "name": "_patent",
          "type": "string"
        }
      ],
      "name": "newOwnerVehicle",
      "outputs": [],
      "stateMutability": "nonpayable",
      "type": "function"
    },
    {
      "inputs": [
        {
          "internalType": "string",
          "name": "_patent",
          "type": "string"
        },
        {
          "internalType": "string",
          "name": "_date",
          "type": "string"
        },
        {
          "internalType": "string",
          "name": "_direction",
          "type": "string"
        },
        {
          "internalType": "string",
          "name": "_description",
          "type": "string"
        }
      ],
      "name": "registerMaintenance",
      "outputs": [],
      "stateMutability": "nonpayable",
      "type": "function"
    },
    {
      "inputs": [
        {
          "internalType": "string",
          "name": "_name",
          "type": "string"
        },
        {
          "internalType": "string",
          "name": "_country",
          "type": "string"
        },
        {
          "internalType": "string",
          "name": "_city",
          "type": "string"
        }
      ],
      "name": "registerUser",
      "outputs": [],
      "stateMutability": "nonpayable",
      "type": "function"
    },
    {
      "inputs": [
        {
          "internalType": "address",
          "name": "_address",
          "type": "address"
        }
      ],
      "name": "returnHappyPartners",
      "outputs": [
        {
          "internalType": "address[]",
          "name": "",
          "type": "address[]"
        }
      ],
      "stateMutability": "view",
      "type": "function"
    },
    {
      "inputs": [
        {
          "internalType": "string",
          "name": "_patent",
          "type": "string"
        }
      ],
      "name": "returnMaintenance",
      "outputs": [
        {
          "internalType": "bytes32[]",
          "name": "",
          "type": "bytes32[]"
        }
      ],
      "stateMutability": "view",
      "type": "function"
    },
    {
      "inputs": [
        {
          "internalType": "string",
          "name": "_patent",
          "type": "string"
        }
      ],
      "name": "returnOwners",
      "outputs": [
        {
          "internalType": "address[]",
          "name": "",
          "type": "address[]"
        }
      ],
      "stateMutability": "view",
      "type": "function"
    },
    {
      "inputs": [
        {
          "internalType": "address",
          "name": "_address",
          "type": "address"
        }
      ],
      "name": "returnUnhappyPartners",
      "outputs": [
        {
          "internalType": "address[]",
          "name": "",
          "type": "address[]"
        }
      ],
      "stateMutability": "view",
      "type": "function"
    },
    {
      "inputs": [
        {
          "internalType": "address",
          "name": "_address",
          "type": "address"
        }
      ],
      "name": "unhappyPartners",
      "outputs": [],
      "stateMutability": "nonpayable",
      "type": "function"
    },
    {
      "inputs": [
        {
          "internalType": "bytes32",
          "name": "",
          "type": "bytes32"
        }
      ],
      "name": "viewMaintenance",
      "outputs": [
        {
          "internalType": "string",
          "name": "date",
          "type": "string"
        },
        {
          "internalType": "uint256",
          "name": "time",
          "type": "uint256"
        },
        {
          "internalType": "string",
          "name": "direction",
          "type": "string"
        },
        {
          "internalType": "bytes32",
          "name": "ID",
          "type": "bytes32"
        },
        {
          "internalType": "string",
          "name": "description",
          "type": "string"
        },
        {
          "internalType": "address",
          "name": "owner",
          "type": "address"
        }
      ],
      "stateMutability": "view",
      "type": "function"
    },
    {
      "inputs": [
        {
          "internalType": "address",
          "name": "",
          "type": "address"
        }
      ],
      "name": "viewUSer",
      "outputs": [
        {
          "internalType": "string",
          "name": "name",
          "type": "string"
        },
        {
          "internalType": "address",
          "name": "Address",
          "type": "address"
        },
        {
          "internalType": "string",
          "name": "country",
          "type": "string"
        },
        {
          "internalType": "string",
          "name": "city",
          "type": "string"
        }
      ],
      "stateMutability": "view",
      "type": "function"
    },
    {
      "inputs": [
        {
          "internalType": "string",
          "name": "",
          "type": "string"
        }
      ],
      "name": "viewVehicle",
      "outputs": [
        {
          "internalType": "string",
          "name": "patent",
          "type": "string"
        },
        {
          "internalType": "address",
          "name": "owner",
          "type": "address"
        },
        {
          "internalType": "string",
          "name": "brand",
          "type": "string"
        },
        {
          "internalType": "string",
          "name": "date",
          "type": "string"
        },
        {
          "internalType": "uint256",
          "name": "time",
          "type": "uint256"
        },
        {
          "internalType": "uint256",
          "name": "yearVehicle",
          "type": "uint256"
        }
      ],
      "stateMutability": "view",
      "type": "function"
    }
  ],
  "bytecode": "0x608060405234801561001057600080fd5b50611a75806100206000396000f3fe608060405234801561001057600080fd5b50600436106100cf5760003560e01c80639854ea8f1161008c578063cc3fc63511610066578063cc3fc635146101d8578063d0223513146101eb578063d637dcfa146101fe578063f7d8b6731461021157600080fd5b80639854ea8f1461019f578063a2885d0c146101b2578063c7644fa2146101c557600080fd5b80630dffd354146100d45780631ab0c3b2146101005780633076e4061461012057806345b22573146101405780634a69c73f146101655780635fffbf191461017a575b600080fd5b6100e76100e2366004611319565b610224565b6040516100f79493929190611390565b60405180910390f35b61011361010e366004611319565b6103f3565b6040516100f79190611427565b61013361012e3660046114dd565b610476565b6040516100f7919061154a565b61015361014e36600461155d565b6104f1565b6040516100f796959493929190611576565b6101786101733660046115d7565b6106c6565b005b61018d6101883660046114dd565b61084c565b6040516100f796959493929190611667565b6101786101ad366004611319565b610a32565b6101136101c03660046114dd565b610b29565b6101136101d3366004611319565b610bad565b6101786101e6366004611319565b610c2e565b6101786101f93660046116c5565b610c83565b61017861020c366004611772565b610e0c565b61017861021f3660046117fa565b610f3f565b60026020526000908152604090208054819061023f90611848565b80601f016020809104026020016040519081016040528092919081815260200182805461026b90611848565b80156102b85780601f1061028d576101008083540402835291602001916102b8565b820191906000526020600020905b81548152906001019060200180831161029b57829003601f168201915b505050600184015460028501805494956001600160a01b039092169491935091506102e290611848565b80601f016020809104026020016040519081016040528092919081815260200182805461030e90611848565b801561035b5780601f106103305761010080835404028352916020019161035b565b820191906000526020600020905b81548152906001019060200180831161033e57829003601f168201915b50505050509080600301805461037090611848565b80601f016020809104026020016040519081016040528092919081815260200182805461039c90611848565b80156103e95780601f106103be576101008083540402835291602001916103e9565b820191906000526020600020905b8154815290600101906020018083116103cc57829003601f168201915b5050505050905084565b6001600160a01b038116600090815260026020908152604091829020600481018054845181850281018501909552808552606094929391929183919083018282801561046857602002820191906000526020600020905b81546001600160a01b0316815260019091019060200180831161044a575b505050505092505050919050565b6060600080836040516104899190611883565b908152604080519182900360209081018320600781018054808402860184019094528385529094509291839183018282801561046857602002820191906000526020600020905b8154815260200190600101908083116104d057505050505092505050919050565b60016020526000908152604090208054819061050c90611848565b80601f016020809104026020016040519081016040528092919081815260200182805461053890611848565b80156105855780601f1061055a57610100808354040283529160200191610585565b820191906000526020600020905b81548152906001019060200180831161056857829003601f168201915b5050505050908060010154908060020180546105a090611848565b80601f01602080910402602001604051908101604052809291908181526020018280546105cc90611848565b80156106195780601f106105ee57610100808354040283529160200191610619565b820191906000526020600020905b8154815290600101906020018083116105fc57829003601f168201915b50505050509080600301549080600401805461063490611848565b80601f016020809104026020016040519081016040528092919081815260200182805461066090611848565b80156106ad5780601f10610682576101008083540402835291602001916106ad565b820191906000526020600020905b81548152906001019060200180831161069057829003601f168201915b505050600590930154919250506001600160a01b031686565b60608060006106d4426110f6565b9050604051806101000160405280888152602001336001600160a01b03168152602001878152602001868152602001828152602001858152602001848152602001838152506000886040516107299190611883565b9081526020016040518091039020600082015181600001908051906020019061075392919061111b565b506020828101516001830180546001600160a01b0319166001600160a01b0390921691909117905560408301518051610792926002850192019061111b565b50606082015180516107ae91600384019160209091019061111b565b506080820151600482015560a0820151600582015560c082015180516107de91600684019160209091019061119f565b5060e082015180516107fa9160078401916020909101906111f4565b509050507f3c839e972d098e360343f7fdd4484135b01ebe8a9fe0f21fd2691602f953514e873388888589898960405161083b98979695949392919061189f565b60405180910390a150505050505050565b805160208183018101805160008252928201919093012091528054819061087290611848565b80601f016020809104026020016040519081016040528092919081815260200182805461089e90611848565b80156108eb5780601f106108c0576101008083540402835291602001916108eb565b820191906000526020600020905b8154815290600101906020018083116108ce57829003601f168201915b505050600184015460028501805494956001600160a01b0390921694919350915061091590611848565b80601f016020809104026020016040519081016040528092919081815260200182805461094190611848565b801561098e5780601f106109635761010080835404028352916020019161098e565b820191906000526020600020905b81548152906001019060200180831161097157829003601f168201915b5050505050908060030180546109a390611848565b80601f01602080910402602001604051908101604052809291908181526020018280546109cf90611848565b8015610a1c5780601f106109f157610100808354040283529160200191610a1c565b820191906000526020600020905b8154815290600101906020018083116109ff57829003601f168201915b5050505050908060040154908060050154905086565b6001600160a01b0381166000818152600260209081526040822060048101805460018101825590845291832090910180546001600160a01b0319163317905591905280548190819081908190610a8790611848565b610a9292919061122e565b5060018281015490820180546001600160a01b0319166001600160a01b039092169190911790556002808301805491830191610acd90611848565b610ad892919061122e565b506003820181600301908054610aed90611848565b610af892919061122e565b5060048281018054610b0d92840191906112a9565b5060058281018054610b2292840191906112a9565b5050505050565b606060008083604051610b3c9190611883565b9081526040805191829003602090810183206006810180548084028601840190945283855290945092918391830182828015610468576020028201919060005260206000209081546001600160a01b0316815260019091019060200180831161044a57505050505092505050919050565b6001600160a01b0381166000908152600260209081526040918290206005810180548451818502810185019095528085526060949293919291839190830182828015610468576020028201919060005260206000209081546001600160a01b0316815260019091019060200180831161044a57505050505092505050919050565b6001600160a01b0381166000818152600260209081526040822060058101805460018101825590845291832090910180546001600160a01b0319163317905591905280548190819081908190610a8790611848565b60008085604051610c949190611883565b90815260405190819003602001902060018101549091506001600160a01b03163314610cbf57600080fd5b6000610cca426110f6565b9050600086868686604051602001610ce5949392919061192d565b60408051601f19818403018152828252805160209182012060078701805460018181018355600092835284832090910183905560c0860185528b86528584018890528585018b905260608601839052608086018b90523360a0870152828252835292909220835180519395509092610d60928492019061111b565b50602082810151600183015560408301518051610d83926002850192019061111b565b506060820151600382015560808201518051610da991600484019160209091019061111b565b5060a09190910151600590910180546001600160a01b0319166001600160a01b039092169190911790556040517ebf8850d4f713b2bed282b77ec3f4e8de7d3cd8a2bd6b5f27833034456b1aa29061083b90889085908990869082903390611576565b6040805160c08101825284815233602080830182905282840186905260608381018690526080840181905260a084018190526000928352600282529390912082518051859493610e6092849291019061111b565b506020828101516001830180546001600160a01b0319166001600160a01b0390921691909117905560408301518051610e9f926002850192019061111b565b5060608201518051610ebb91600384019160209091019061111b565b5060808201518051610ed791600484019160209091019061119f565b5060a08201518051610ef391600584019160209091019061119f565b509050507fa10badbf4432ac2047532eeae9652f4dcd54288795ea69c5ab330f0688f07408853386868686604051610f3096959493929190611984565b60405180910390a15050505050565b60008082604051610f509190611883565b90815260405190819003602001902060018101549091506001600160a01b03163314610f7b57600080fd5b600180820180546001600160a01b0386166001600160a01b031991821681179092556006840180548085018255600082815260208120918201805485163317905582549586019092559390930180549091169091179055604051829190610fe3908590611883565b90815260405190819003602001902081548190839061100190611848565b61100c92919061122e565b5060018281015490820180546001600160a01b0319166001600160a01b03909216919091179055600280830180549183019161104790611848565b61105292919061122e565b50600382018160030190805461106790611848565b61107292919061122e565b506004820154816004015560058201548160050155600682018160060190805461109d9291906112a9565b50600782810180546110b292840191906112a9565b50506040516001600160a01b03851681527f8595245435170930a21ed26c79efd78952513e5f85ae3d411a586ab25df17bb3915060200160405180910390a1505050565b6000806111066201518084611a17565b9050611114610e1082611a2b565b9392505050565b82805461112790611848565b90600052602060002090601f016020900481019282611149576000855561118f565b82601f1061116257805160ff191683800117855561118f565b8280016001018555821561118f579182015b8281111561118f578251825591602001919060010190611174565b5061119b9291506112e8565b5090565b82805482825590600052602060002090810192821561118f579160200282015b8281111561118f57825182546001600160a01b0319166001600160a01b039091161782556020909201916001909101906111bf565b82805482825590600052602060002090810192821561118f579160200282018281111561118f578251825591602001919060010190611174565b82805461123a90611848565b90600052602060002090601f01602090048101928261125c576000855561118f565b82601f1061126d578054855561118f565b8280016001018555821561118f57600052602060002091601f016020900482015b8281111561118f57825482559160010191906001019061128e565b82805482825590600052602060002090810192821561118f5760005260206000209182018281111561118f57825482559160010191906001019061128e565b5b8082111561119b57600081556001016112e9565b80356001600160a01b038116811461131457600080fd5b919050565b60006020828403121561132b57600080fd5b611114826112fd565b60005b8381101561134f578181015183820152602001611337565b8381111561135e576000848401525b50505050565b6000815180845261137c816020860160208601611334565b601f01601f19169290920160200192915050565b6080815260006113a36080830187611364565b6001600160a01b038616602084015282810360408401526113c48186611364565b905082810360608401526113d88185611364565b979650505050505050565b600081518084526020808501945080840160005b8381101561141c5781516001600160a01b0316875295820195908201906001016113f7565b509495945050505050565b60208152600061111460208301846113e3565b634e487b7160e01b600052604160045260246000fd5b600082601f83011261146157600080fd5b813567ffffffffffffffff8082111561147c5761147c61143a565b604051601f8301601f19908116603f011681019082821181831017156114a4576114a461143a565b816040528381528660208588010111156114bd57600080fd5b836020870160208301376000602085830101528094505050505092915050565b6000602082840312156114ef57600080fd5b813567ffffffffffffffff81111561150657600080fd5b61151284828501611450565b949350505050565b600081518084526020808501945080840160005b8381101561141c5781518752958201959082019060010161152e565b602081526000611114602083018461151a565b60006020828403121561156f57600080fd5b5035919050565b60c08152600061158960c0830189611364565b87602084015282810360408401526115a18188611364565b905085606084015282810360808401526115bb8186611364565b91505060018060a01b03831660a0830152979650505050505050565b600080600080608085870312156115ed57600080fd5b843567ffffffffffffffff8082111561160557600080fd5b61161188838901611450565b9550602087013591508082111561162757600080fd5b61163388838901611450565b9450604087013591508082111561164957600080fd5b5061165687828801611450565b949793965093946060013593505050565b60c08152600061167a60c0830189611364565b6001600160a01b0388166020840152828103604084015261169b8188611364565b905082810360608401526116af8187611364565b6080840195909552505060a00152949350505050565b600080600080608085870312156116db57600080fd5b843567ffffffffffffffff808211156116f357600080fd5b6116ff88838901611450565b9550602087013591508082111561171557600080fd5b61172188838901611450565b9450604087013591508082111561173757600080fd5b61174388838901611450565b9350606087013591508082111561175957600080fd5b5061176687828801611450565b91505092959194509250565b60008060006060848603121561178757600080fd5b833567ffffffffffffffff8082111561179f57600080fd5b6117ab87838801611450565b945060208601359150808211156117c157600080fd5b6117cd87838801611450565b935060408601359150808211156117e357600080fd5b506117f086828701611450565b9150509250925092565b6000806040838503121561180d57600080fd5b611816836112fd565b9150602083013567ffffffffffffffff81111561183257600080fd5b61183e85828601611450565b9150509250929050565b600181811c9082168061185c57607f821691505b6020821081141561187d57634e487b7160e01b600052602260045260246000fd5b50919050565b60008251611895818460208701611334565b9190910192915050565b60006101008083526118b38184018c611364565b6001600160a01b038b166020850152838103604085015290506118d6818a611364565b905082810360608401526118ea8189611364565b90508660808401528560a084015282810360c084015261190a81866113e3565b905082810360e084015261191e818561151a565b9b9a5050505050505050505050565b6000855161193f818460208a01611334565b855190830190611953818360208a01611334565b8551910190611966818360208901611334565b8451910190611979818360208801611334565b019695505050505050565b60c08152600061199760c0830189611364565b6001600160a01b038816602084015282810360408401526119b88188611364565b905082810360608401526119cc8187611364565b905082810360808401526119e081866113e3565b905082810360a08401526119f481856113e3565b9998505050505050505050565b634e487b7160e01b600052601260045260246000fd5b600082611a2657611a26611a01565b500690565b600082611a3a57611a3a611a01565b50049056fea2646970667358221220e3317488f7b29a9fc578cb8683b9175c2009ae47e454b2a9ef01ae9f2d9831a464736f6c63430008090033",
  "linkReferences": {},
  "deployedLinkReferences": {}
}